{"abi":[{"type":"constructor","inputs":[],"stateMutability":"nonpayable"},{"type":"function","name":"ASSET_HANDLER_ROLE","inputs":[],"outputs":[{"name":"","type":"bytes32","internalType":"bytes32"}],"stateMutability":"view"},{"type":"function","name":"DEFAULT_ADMIN_ROLE","inputs":[],"outputs":[{"name":"","type":"bytes32","internalType":"bytes32"}],"stateMutability":"view"},{"type":"function","name":"MAX_PAYLOAD_SIZE","inputs":[],"outputs":[{"name":"","type":"uint256","internalType":"uint256"}],"stateMutability":"view"},{"type":"function","name":"PAUSER_ROLE","inputs":[],"outputs":[{"name":"","type":"bytes32","internalType":"bytes32"}],"stateMutability":"view"},{"type":"function","name":"TSS_ROLE","inputs":[],"outputs":[{"name":"","type":"bytes32","internalType":"bytes32"}],"stateMutability":"view"},{"type":"function","name":"UPGRADE_INTERFACE_VERSION","inputs":[],"outputs":[{"name":"","type":"string","internalType":"string"}],"stateMutability":"view"},{"type":"function","name":"call","inputs":[{"name":"receiver","type":"address","internalType":"address"},{"name":"payload","type":"bytes","internalType":"bytes"},{"name":"revertOptions","type":"tuple","internalType":"struct RevertOptions","components":[{"name":"revertAddress","type":"address","internalType":"address"},{"name":"callOnRevert","type":"bool","internalType":"bool"},{"name":"abortAddress","type":"address","internalType":"address"},{"name":"revertMessage","type":"bytes","internalType":"bytes"},{"name":"onRevertGasLimit","type":"uint256","internalType":"uint256"}]}],"outputs":[],"stateMutability":"nonpayable"},{"type":"function","name":"custody","inputs":[],"outputs":[{"name":"","type":"address","internalType":"address"}],"stateMutability":"view"},{"type":"function","name":"deposit","inputs":[{"name":"receiver","type":"address","internalType":"address"},{"name":"amount","type":"uint256","internalType":"uint256"},{"name":"asset","type":"address","internalType":"address"},{"name":"revertOptions","type":"tuple","internalType":"struct RevertOptions","components":[{"name":"revertAddress","type":"address","internalType":"address"},{"name":"callOnRevert","type":"bool","internalType":"bool"},{"name":"abortAddress","type":"address","internalType":"address"},{"name":"revertMessage","type":"bytes","internalType":"bytes"},{"name":"onRevertGasLimit","type":"uint256","internalType":"uint256"}]}],"outputs":[],"stateMutability":"nonpayable"},{"type":"function","name":"deposit","inputs":[{"name":"receiver","type":"address","internalType":"address"},{"name":"revertOptions","type":"tuple","internalType":"struct RevertOptions","components":[{"name":"revertAddress","type":"address","internalType":"address"},{"name":"callOnRevert","type":"bool","internalType":"bool"},{"name":"abortAddress","type":"address","internalType":"address"},{"name":"revertMessage","type":"bytes","internalType":"bytes"},{"name":"onRevertGasLimit","type":"uint256","internalType":"uint256"}]}],"outputs":[],"stateMutability":"payable"},{"type":"function","name":"depositAndCall","inputs":[{"name":"receiver","type":"address","internalType":"address"},{"name":"payload","type":"bytes","internalType":"bytes"},{"name":"revertOptions","type":"tuple","internalType":"struct RevertOptions","components":[{"name":"revertAddress","type":"address","internalType":"address"},{"name":"callOnRevert","type":"bool","internalType":"bool"},{"name":"abortAddress","type":"address","internalType":"address"},{"name":"revertMessage","type":"bytes","internalType":"bytes"},{"name":"onRevertGasLimit","type":"uint256","internalType":"uint256"}]}],"outputs":[],"stateMutability":"payable"},{"type":"function","name":"depositAndCall","inputs":[{"name":"receiver","type":"address","internalType":"address"},{"name":"amount","type":"uint256","internalType":"uint256"},{"name":"asset","type":"address","internalType":"address"},{"name":"payload","type":"bytes","internalType":"bytes"},{"name":"revertOptions","type":"tuple","internalType":"struct RevertOptions","components":[{"name":"revertAddress","type":"address","internalType":"address"},{"name":"callOnRevert","type":"bool","internalType":"bool"},{"name":"abortAddress","type":"address","internalType":"address"},{"name":"revertMessage","type":"bytes","internalType":"bytes"},{"name":"onRevertGasLimit","type":"uint256","internalType":"uint256"}]}],"outputs":[],"stateMutability":"nonpayable"},{"type":"function","name":"execute","inputs":[{"name":"destination","type":"address","internalType":"address"},{"name":"data","type":"bytes","internalType":"bytes"}],"outputs":[{"name":"","type":"bytes","internalType":"bytes"}],"stateMutability":"payable"},{"type":"function","name":"execute","inputs":[{"name":"messageContext","type":"tuple","internalType":"struct MessageContext","components":[{"name":"sender","type":"address","internalType":"address"}]},{"name":"destination","type":"address","internalType":"address"},{"name":"data","type":"bytes","internalType":"bytes"}],"outputs":[{"name":"","type":"bytes","internalType":"bytes"}],"stateMutability":"payable"},{"type":"function","name":"executeRevert","inputs":[{"name":"destination","type":"address","internalType":"address"},{"name":"data","type":"bytes","internalType":"bytes"},{"name":"revertContext","type":"tuple","internalType":"struct RevertContext","components":[{"name":"sender","type":"address","internalType":"address"},{"name":"asset","type":"address","internalType":"address"},{"name":"amount","type":"uint256","internalType":"uint256"},{"name":"revertMessage","type":"bytes","internalType":"bytes"}]}],"outputs":[],"stateMutability":"payable"},{"type":"function","name":"executeWithERC20","inputs":[{"name":"token","type":"address","internalType":"address"},{"name":"to","type":"address","internalType":"address"},{"name":"amount","type":"uint256","internalType":"uint256"},{"name":"data","type":"bytes","internalType":"bytes"}],"outputs":[],"stateMutability":"nonpayable"},{"type":"function","name":"getRoleAdmin","inputs":[{"name":"role","type":"bytes32","internalType":"bytes32"}],"outputs":[{"name":"","type":"bytes32","internalType":"bytes32"}],"stateMutability":"view"},{"type":"function","name":"grantRole","inputs":[{"name":"role","type":"bytes32","internalType":"bytes32"},{"name":"account","type":"address","internalType":"address"}],"outputs":[],"stateMutability":"nonpayable"},{"type":"function","name":"hasRole","inputs":[{"name":"role","type":"bytes32","internalType":"bytes32"},{"name":"account","type":"address","internalType":"address"}],"outputs":[{"name":"","type":"bool","internalType":"bool"}],"stateMutability":"view"},{"type":"function","name":"initialize","inputs":[{"name":"tssAddress_","type":"address","internalType":"address"},{"name":"zetaToken_","type":"address","internalType":"address"},{"name":"admin_","type":"address","internalType":"address"}],"outputs":[],"stateMutability":"nonpayable"},{"type":"function","name":"pause","inputs":[],"outputs":[],"stateMutability":"nonpayable"},{"type":"function","name":"paused","inputs":[],"outputs":[{"name":"","type":"bool","internalType":"bool"}],"stateMutability":"view"},{"type":"function","name":"proxiableUUID","inputs":[],"outputs":[{"name":"","type":"bytes32","internalType":"bytes32"}],"stateMutability":"view"},{"type":"function","name":"renounceRole","inputs":[{"name":"role","type":"bytes32","internalType":"bytes32"},{"name":"callerConfirmation","type":"address","internalType":"address"}],"outputs":[],"stateMutability":"nonpayable"},{"type":"function","name":"revertWithERC20","inputs":[{"name":"token","type":"address","internalType":"address"},{"name":"to","type":"address","internalType":"address"},{"name":"amount","type":"uint256","internalType":"uint256"},{"name":"data","type":"bytes","internalType":"bytes"},{"name":"revertContext","type":"tuple","internalType":"struct RevertContext","components":[{"name":"sender","type":"address","internalType":"address"},{"name":"asset","type":"address","internalType":"address"},{"name":"amount","type":"uint256","internalType":"uint256"},{"name":"revertMessage","type":"bytes","internalType":"bytes"}]}],"outputs":[],"stateMutability":"nonpayable"},{"type":"function","name":"revokeRole","inputs":[{"name":"role","type":"bytes32","internalType":"bytes32"},{"name":"account","type":"address","internalType":"address"}],"outputs":[],"stateMutability":"nonpayable"},{"type":"function","name":"setConnector","inputs":[{"name":"zetaConnector_","type":"address","internalType":"address"}],"outputs":[],"stateMutability":"nonpayable"},{"type":"function","name":"setCustody","inputs":[{"name":"custody_","type":"address","internalType":"address"}],"outputs":[],"stateMutability":"nonpayable"},{"type":"function","name":"supportsInterface","inputs":[{"name":"interfaceId","type":"bytes4","internalType":"bytes4"}],"outputs":[{"name":"","type":"bool","internalType":"bool"}],"stateMutability":"view"},{"type":"function","name":"tssAddress","inputs":[],"outputs":[{"name":"","type":"address","internalType":"address"}],"stateMutability":"view"},{"type":"function","name":"unpause","inputs":[],"outputs":[],"stateMutability":"nonpayable"},{"type":"function","name":"updateTSSAddress","inputs":[{"name":"newTSSAddress","type":"address","internalType":"address"}],"outputs":[],"stateMutability":"nonpayable"},{"type":"function","name":"upgradeToAndCall","inputs":[{"name":"newImplementation","type":"address","internalType":"address"},{"name":"data","type":"bytes","internalType":"bytes"}],"outputs":[],"stateMutability":"payable"},{"type":"function","name":"zetaConnector","inputs":[],"outputs":[{"name":"","type":"address","internalType":"address"}],"stateMutability":"view"},{"type":"function","name":"zetaToken","inputs":[],"outputs":[{"name":"","type":"address","internalType":"address"}],"stateMutability":"view"},{"type":"event","name":"Called","inputs":[{"name":"sender","type":"address","indexed":true,"internalType":"address"},{"name":"receiver","type":"address","indexed":true,"internalType":"address"},{"name":"payload","type":"bytes","indexed":false,"internalType":"bytes"},{"name":"revertOptions","type":"tuple","indexed":false,"internalType":"struct RevertOptions","components":[{"name":"revertAddress","type":"address","internalType":"address"},{"name":"callOnRevert","type":"bool","internalType":"bool"},{"name":"abortAddress","type":"address","internalType":"address"},{"name":"revertMessage","type":"bytes","internalType":"bytes"},{"name":"onRevertGasLimit","type":"uint256","internalType":"uint256"}]}],"anonymous":false},{"type":"event","name":"Deposited","inputs":[{"name":"sender","type":"address","indexed":true,"internalType":"address"},{"name":"receiver","type":"address","indexed":true,"internalType":"address"},{"name":"amount","type":"uint256","indexed":false,"internalType":"uint256"},{"name":"asset","type":"address","indexed":false,"internalType":"address"},{"name":"payload","type":"bytes","indexed":false,"internalType":"bytes"},{"name":"revertOptions","type":"tuple","indexed":false,"internalType":"struct RevertOptions","components":[{"name":"revertAddress","type":"address","internalType":"address"},{"name":"callOnRevert","type":"bool","internalType":"bool"},{"name":"abortAddress","type":"address","internalType":"address"},{"name":"revertMessage","type":"bytes","internalType":"bytes"},{"name":"onRevertGasLimit","type":"uint256","internalType":"uint256"}]}],"anonymous":false},{"type":"event","name":"Executed","inputs":[{"name":"destination","type":"address","indexed":true,"internalType":"address"},{"name":"value","type":"uint256","indexed":false,"internalType":"uint256"},{"name":"data","type":"bytes","indexed":false,"internalType":"bytes"}],"anonymous":false},{"type":"event","name":"ExecutedWithERC20","inputs":[{"name":"token","type":"address","indexed":true,"internalType":"address"},{"name":"to","type":"address","indexed":true,"internalType":"address"},{"name":"amount","type":"uint256","indexed":false,"internalType":"uint256"},{"name":"data","type":"bytes","indexed":false,"internalType":"bytes"}],"anonymous":false},{"type":"event","name":"Initialized","inputs":[{"name":"version","type":"uint64","indexed":false,"internalType":"uint64"}],"anonymous":false},{"type":"event","name":"Paused","inputs":[{"name":"account","type":"address","indexed":false,"internalType":"address"}],"anonymous":false},{"type":"event","name":"Reverted","inputs":[{"name":"to","type":"address","indexed":true,"internalType":"address"},{"name":"token","type":"address","indexed":true,"internalType":"address"},{"name":"amount","type":"uint256","indexed":false,"internalType":"uint256"},{"name":"data","type":"bytes","indexed":false,"internalType":"bytes"},{"name":"revertContext","type":"tuple","indexed":false,"internalType":"struct RevertContext","components":[{"name":"sender","type":"address","internalType":"address"},{"name":"asset","type":"address","internalType":"address"},{"name":"amount","type":"uint256","internalType":"uint256"},{"name":"revertMessage","type":"bytes","internalType":"bytes"}]}],"anonymous":false},{"type":"event","name":"RoleAdminChanged","inputs":[{"name":"role","type":"bytes32","indexed":true,"internalType":"bytes32"},{"name":"previousAdminRole","type":"bytes32","indexed":true,"internalType":"bytes32"},{"name":"newAdminRole","type":"bytes32","indexed":true,"internalType":"bytes32"}],"anonymous":false},{"type":"event","name":"RoleGranted","inputs":[{"name":"role","type":"bytes32","indexed":true,"internalType":"bytes32"},{"name":"account","type":"address","indexed":true,"internalType":"address"},{"name":"sender","type":"address","indexed":true,"internalType":"address"}],"anonymous":false},{"type":"event","name":"RoleRevoked","inputs":[{"name":"role","type":"bytes32","indexed":true,"internalType":"bytes32"},{"name":"account","type":"address","indexed":true,"internalType":"address"},{"name":"sender","type":"address","indexed":true,"internalType":"address"}],"anonymous":false},{"type":"event","name":"Unpaused","inputs":[{"name":"account","type":"address","indexed":false,"internalType":"address"}],"anonymous":false},{"type":"event","name":"UpdatedGatewayTSSAddress","inputs":[{"name":"newTSSAddress","type":"address","indexed":false,"internalType":"address"}],"anonymous":false},{"type":"event","name":"Upgraded","inputs":[{"name":"implementation","type":"address","indexed":true,"internalType":"address"}],"anonymous":false},{"type":"error","name":"AccessControlBadConfirmation","inputs":[]},{"type":"error","name":"AccessControlUnauthorizedAccount","inputs":[{"name":"account","type":"address","internalType":"address"},{"name":"neededRole","type":"bytes32","internalType":"bytes32"}]},{"type":"error","name":"AddressEmptyCode","inputs":[{"name":"target","type":"address","internalType":"address"}]},{"type":"error","name":"AddressInsufficientBalance","inputs":[{"name":"account","type":"address","internalType":"address"}]},{"type":"error","name":"ApprovalFailed","inputs":[]},{"type":"error","name":"ConnectorInitialized","inputs":[]},{"type":"error","name":"CustodyInitialized","inputs":[]},{"type":"error","name":"DepositFailed","inputs":[]},{"type":"error","name":"ERC1967InvalidImplementation","inputs":[{"name":"implementation","type":"address","internalType":"address"}]},{"type":"error","name":"ERC1967NonPayable","inputs":[]},{"type":"error","name":"EnforcedPause","inputs":[]},{"type":"error","name":"ExecutionFailed","inputs":[]},{"type":"error","name":"ExpectedPause","inputs":[]},{"type":"error","name":"FailedInnerCall","inputs":[]},{"type":"error","name":"InsufficientERC20Amount","inputs":[]},{"type":"error","name":"InsufficientETHAmount","inputs":[]},{"type":"error","name":"InvalidInitialization","inputs":[]},{"type":"error","name":"NotAllowedToCallOnCall","inputs":[]},{"type":"error","name":"NotAllowedToCallOnRevert","inputs":[]},{"type":"error","name":"NotInitializing","inputs":[]},{"type":"error","name":"NotWhitelistedInCustody","inputs":[]},{"type":"error","name":"PayloadSizeExceeded","inputs":[]},{"type":"error","name":"ReentrancyGuardReentrantCall","inputs":[]},{"type":"error","name":"SafeERC20FailedOperation","inputs":[{"name":"token","type":"address","internalType":"address"}]},{"type":"error","name":"UUPSUnauthorizedCallContext","inputs":[]},{"type":"error","name":"UUPSUnsupportedProxiableUUID","inputs":[{"name":"slot","type":"bytes32","internalType":"bytes32"}]},{"type":"error","name":"ZeroAddress","inputs":[]}],"bytecode":{"object":"0x60a06040523060805234801561001457600080fd5b5061001d610022565b6100d4565b7ff0c57e16840df040f15088dc2f81fe391c3923bec73e23a9662efc9c229c6a00805468010000000000000000900460ff16156100725760405163f92ee8a960e01b815260040160405180910390fd5b80546001600160401b03908116146100d15780546001600160401b0319166001600160401b0390811782556040519081527fc7f505b2f371ae2175ee4913f4499e1f2633a7b5936321eed1cdaeb6115181d29060200160405180910390a15b50565b608051613b0c6100fd600039600081816123730152818161239c015261280a0152613b0c6000f3fe6080604052600436106102345760003560e01c80635d62c86011610138578063aa0c0fc1116100b0578063cb7ba8e51161007f578063d547741f11610064578063d547741f146106db578063dda79b75146106fb578063e63ab1e91461071b57600080fd5b8063cb7ba8e5146106a8578063d09e3b78146106bb57600080fd5b8063aa0c0fc1146105ff578063ad3cb1cc1461061f578063ae7a3a6f14610668578063c0c53b8b1461068857600080fd5b806391d1485411610107578063a217fddf116100ec578063a217fddf146105a0578063a2ba1934146105b5578063a783c789146105cb57600080fd5b806391d148541461051b578063950837aa1461058057600080fd5b80635d62c860146104ac578063726ac97c146104e0578063744b9b8b146104f35780638456cb591461050657600080fd5b806336568abe116101cb5780635131ab591161019a57806357bec62f1161017f57806357bec62f146104355780635b112591146104555780635c975abb1461047557600080fd5b80635131ab591461040057806352d1902d1461042057600080fd5b806336568abe146103a557806338e22527146103c55780633f4ba83a146103d85780634f1ef286146103ed57600080fd5b80631cff79cd116102075780631cff79cd146102d057806321e093b1146102f0578063248a9ca3146103285780632f2ff15d1461038557600080fd5b806301ffc9a71461023957806310188aef1461026e578063102614b0146102905780631becceb4146102b0575b600080fd5b34801561024557600080fd5b50610259610254366004612ff1565b61074f565b60405190151581526020015b60405180910390f35b34801561027a57600080fd5b5061028e61028936600461304f565b6107e8565b005b34801561029c57600080fd5b5061028e6102ab366004613082565b6108c3565b3480156102bc57600080fd5b5061028e6102cb366004613133565b61098c565b6102e36102de36600461319a565b610a54565b604051610265919061323d565b3480156102fc57600080fd5b50600354610310906001600160a01b031681565b6040516001600160a01b039091168152602001610265565b34801561033457600080fd5b50610377610343366004613250565b60009081527f02dd7bc7dec4dceedda775e58dd541e08a116c6c53815c0bd028192f7b626800602052604090206001015490565b604051908152602001610265565b34801561039157600080fd5b5061028e6103a0366004613269565b610b0c565b3480156103b157600080fd5b5061028e6103c0366004613269565b610b56565b6102e36103d3366004613295565b610ba7565b3480156103e457600080fd5b5061028e610c93565b61028e6103fb366004613386565b610cc8565b34801561040c57600080fd5b5061028e61041b366004613417565b610ce7565b34801561042c57600080fd5b50610377610fe7565b34801561044157600080fd5b50600254610310906001600160a01b031681565b34801561046157600080fd5b50600154610310906001600160a01b031681565b34801561048157600080fd5b507fcd5ed15c6e187e77e9aee88184c21f4f2182ab5827cb3b7e07fbedcd63f033005460ff16610259565b3480156104b857600080fd5b506103777f584a0b16e9f616d90ccec14a0b852c19aceccfd3d60699398a57dce2b0de01b981565b61028e6104ee366004613486565b611016565b61028e610501366004613133565b611161565b34801561051257600080fd5b5061028e611304565b34801561052757600080fd5b50610259610536366004613269565b60009182527f02dd7bc7dec4dceedda775e58dd541e08a116c6c53815c0bd028192f7b626800602090815260408084206001600160a01b0393909316845291905290205460ff1690565b34801561058c57600080fd5b5061028e61059b36600461304f565b611336565b3480156105ac57600080fd5b50610377600081565b3480156105c157600080fd5b5061037761040081565b3480156105d757600080fd5b506103777f0da06bffcb63442de88b7f8385468eaf51e47079d4fa96875938e2c27c451deb81565b34801561060b57600080fd5b5061028e61061a3660046134e6565b611438565b34801561062b57600080fd5b506102e36040518060400160405280600581526020017f352e302e3000000000000000000000000000000000000000000000000000000081525081565b34801561067457600080fd5b5061028e61068336600461304f565b6115e1565b34801561069457600080fd5b5061028e6106a336600461357e565b6116bc565b61028e6106b63660046135c1565b611958565b3480156106c757600080fd5b5061028e6106d6366004613634565b611b40565b3480156106e757600080fd5b5061028e6106f6366004613269565b611c61565b34801561070757600080fd5b50600054610310906001600160a01b031681565b34801561072757600080fd5b506103777f65d7a28e3265b37a6474929f336521b332c1681b933f6cb9f3376673440d862a81565b60007fffffffff0000000000000000000000000000000000000000000000000000000082167f7965db0b0000000000000000000000000000000000000000000000000000000014806107e257507f01ffc9a7000000000000000000000000000000000000000000000000000000007fffffffff000000000000000000000000000000000000000000000000000000008316145b92915050565b60006107f381611ca5565b6001600160a01b03821661081a5760405163d92e233d60e01b815260040160405180910390fd5b6002546001600160a01b03161561085d576040517f0c8dc01600000000000000000000000000000000000000000000000000000000815260040160405180910390fd5b6108877f584a0b16e9f616d90ccec14a0b852c19aceccfd3d60699398a57dce2b0de01b983611caf565b5050600280547fffffffffffffffffffffffff0000000000000000000000000000000000000000166001600160a01b0392909216919091179055565b6108cb611d9c565b82600003610905576040517f951e19ed00000000000000000000000000000000000000000000000000000000815260040160405180910390fd5b6001600160a01b03841661092c5760405163d92e233d60e01b815260040160405180910390fd5b610937338385611dfa565b836001600160a01b0316336001600160a01b03167fc6f891b65320c682b217616a62b51f218fee95d5f0ba83e758ef9ab4ee8e975c85858560405161097e939291906137d9565b60405180910390a350505050565b610994611d9c565b6001600160a01b0384166109bb5760405163d92e233d60e01b815260040160405180910390fd5b6104006109cb606083018361380f565b6109d6915084613874565b10610a0d576040517f386691aa00000000000000000000000000000000000000000000000000000000815260040160405180910390fd5b836001600160a01b0316336001600160a01b03167fd34634f30f94a646fdf4ce7078f38fc5fa0d3f0b193658facea4e3e43330d97485858560405161097e939291906138ae565b60607f0da06bffcb63442de88b7f8385468eaf51e47079d4fa96875938e2c27c451deb610a8081611ca5565b610a88611d9c565b6001600160a01b038516610aaf5760405163d92e233d60e01b815260040160405180910390fd5b6000610abc868686612037565b9050856001600160a01b03167fcaf938de11c367272220bfd1d2baa99ca46665e7bc4d85f00adb51b90fe1fa9f348787604051610afb939291906138d4565b60405180910390a295945050505050565b60008281527f02dd7bc7dec4dceedda775e58dd541e08a116c6c53815c0bd028192f7b6268006020526040902060010154610b4681611ca5565b610b508383611caf565b50505050565b6001600160a01b0381163314610b98576040517f6697b23200000000000000000000000000000000000000000000000000000000815260040160405180910390fd5b610ba282826120ea565b505050565b60607f0da06bffcb63442de88b7f8385468eaf51e47079d4fa96875938e2c27c451deb610bd381611ca5565b610bdb611d9c565b610be36121ae565b6001600160a01b038516610c0a5760405163d92e233d60e01b815260040160405180910390fd5b6060610c188787878761222f565b9050856001600160a01b03167fcaf938de11c367272220bfd1d2baa99ca46665e7bc4d85f00adb51b90fe1fa9f348787604051610c57939291906138d4565b60405180910390a29150610c8a60017f9b779b17422d0df92223018b32b4d1fa46e071723d6817e2486d003becc55f0055565b50949350505050565b7f65d7a28e3265b37a6474929f336521b332c1681b933f6cb9f3376673440d862a610cbd81611ca5565b610cc56122d8565b50565b610cd0612368565b610cd982612438565b610ce38282612443565b5050565b7f584a0b16e9f616d90ccec14a0b852c19aceccfd3d60699398a57dce2b0de01b9610d1181611ca5565b610d19611d9c565b610d216121ae565b83600003610d5b576040517f951e19ed00000000000000000000000000000000000000000000000000000000815260040160405180910390fd5b6001600160a01b038516610d825760405163d92e233d60e01b815260040160405180910390fd5b610d8c8686612549565b610dc2576040517f8164f84200000000000000000000000000000000000000000000000000000000815260040160405180910390fd5b6040517f095ea7b30000000000000000000000000000000000000000000000000000000081526001600160a01b0386811660048301526024820186905287169063095ea7b3906044016020604051808303816000875af1158015610e2a573d6000803e3d6000fd5b505050506040513d601f19601f82011682018060405250810190610e4e91906138ee565b610e84576040517f8164f84200000000000000000000000000000000000000000000000000000000815260040160405180910390fd5b610e8f858484612037565b50610e9a8686612549565b610ed0576040517f8164f84200000000000000000000000000000000000000000000000000000000815260040160405180910390fd5b6040517f70a082310000000000000000000000000000000000000000000000000000000081523060048201526000906001600160a01b038816906370a0823190602401602060405180830381865afa158015610f30573d6000803e3d6000fd5b505050506040513d601f19601f82011682018060405250810190610f54919061390b565b90508015610f6657610f6687826125d9565b856001600160a01b0316876001600160a01b03167f29c40793bffd84cb810179f15d1ceec72bc7f0785514c668ba36645cf99b7382878787604051610fad939291906138d4565b60405180910390a350610fdf60017f9b779b17422d0df92223018b32b4d1fa46e071723d6817e2486d003becc55f0055565b505050505050565b6000610ff16127ff565b507f360894a13ba1a3210667c828492db98dca3e2076cc3735a920a3ca505d382bbc90565b61101e611d9c565b34600003611058576040517f7671265e00000000000000000000000000000000000000000000000000000000815260040160405180910390fd5b6001600160a01b03821661107f5760405163d92e233d60e01b815260040160405180910390fd5b6001546040516000916001600160a01b03169034908381818185875af1925050503d80600081146110cc576040519150601f19603f3d011682016040523d82523d6000602084013e6110d1565b606091505b505090508061110c576040517f79cacff100000000000000000000000000000000000000000000000000000000815260040160405180910390fd5b826001600160a01b0316336001600160a01b03167fc6f891b65320c682b217616a62b51f218fee95d5f0ba83e758ef9ab4ee8e975c34600086604051611154939291906137d9565b60405180910390a3505050565b611169611d9c565b346000036111a3576040517f7671265e00000000000000000000000000000000000000000000000000000000815260040160405180910390fd5b6001600160a01b0384166111ca5760405163d92e233d60e01b815260040160405180910390fd5b6104006111da606083018361380f565b6111e5915084613874565b1061121c576040517f386691aa00000000000000000000000000000000000000000000000000000000815260040160405180910390fd5b6001546040516000916001600160a01b03169034908381818185875af1925050503d8060008114611269576040519150601f19603f3d011682016040523d82523d6000602084013e61126e565b606091505b50509050806112a9576040517f79cacff100000000000000000000000000000000000000000000000000000000815260040160405180910390fd5b846001600160a01b0316336001600160a01b03167fc6f891b65320c682b217616a62b51f218fee95d5f0ba83e758ef9ab4ee8e975c3460008888886040516112f5959493929190613924565b60405180910390a35050505050565b7f65d7a28e3265b37a6474929f336521b332c1681b933f6cb9f3376673440d862a61132e81611ca5565b610cc5612861565b600061134181611ca5565b6001600160a01b0382166113685760405163d92e233d60e01b815260040160405180910390fd5b60015461139f907f0da06bffcb63442de88b7f8385468eaf51e47079d4fa96875938e2c27c451deb906001600160a01b03166120ea565b506113ca7f0da06bffcb63442de88b7f8385468eaf51e47079d4fa96875938e2c27c451deb83611caf565b50600180547fffffffffffffffffffffffff0000000000000000000000000000000000000000166001600160a01b0384169081179091556040519081527f7598d084f3a8d9a71847119f6fdb694046bc0aaab0dee775c33c1df9be089a059060200160405180910390a15050565b7f584a0b16e9f616d90ccec14a0b852c19aceccfd3d60699398a57dce2b0de01b961146281611ca5565b61146a611d9c565b6114726121ae565b846000036114ac576040517f951e19ed00000000000000000000000000000000000000000000000000000000815260040160405180910390fd5b6001600160a01b0386166114d35760405163d92e233d60e01b815260040160405180910390fd5b6114e76001600160a01b03881687876128da565b6040517fc9028a360000000000000000000000000000000000000000000000000000000081526001600160a01b0387169063c9028a369061152c9085906004016139c7565b600060405180830381600087803b15801561154657600080fd5b505af115801561155a573d6000803e3d6000fd5b50505050866001600160a01b0316866001600160a01b03167fde7603a6ed5d07c9f43597ccfe9043d15b66d3284f0de321f5cdf56329e6e035878787876040516115a794939291906139da565b60405180910390a36115d860017f9b779b17422d0df92223018b32b4d1fa46e071723d6817e2486d003becc55f0055565b50505050505050565b60006115ec81611ca5565b6001600160a01b0382166116135760405163d92e233d60e01b815260040160405180910390fd5b6000546001600160a01b031615611656576040517fb337f37800000000000000000000000000000000000000000000000000000000815260040160405180910390fd5b6116807f584a0b16e9f616d90ccec14a0b852c19aceccfd3d60699398a57dce2b0de01b983611caf565b5050600080547fffffffffffffffffffffffff0000000000000000000000000000000000000000166001600160a01b0392909216919091179055565b7ff0c57e16840df040f15088dc2f81fe391c3923bec73e23a9662efc9c229c6a00805468010000000000000000810460ff16159067ffffffffffffffff166000811580156117075750825b905060008267ffffffffffffffff1660011480156117245750303b155b905081158015611732575080155b15611769576040517ff92ee8a900000000000000000000000000000000000000000000000000000000815260040160405180910390fd5b84547fffffffffffffffffffffffffffffffffffffffffffffffff000000000000000016600117855583156117ca5784547fffffffffffffffffffffffffffffffffffffffffffffff00ffffffffffffffff16680100000000000000001785555b6001600160a01b03881615806117e757506001600160a01b038716155b156118055760405163d92e233d60e01b815260040160405180910390fd5b61180d61294e565b611815612956565b61181d61294e565b611825612966565b611830600087611caf565b5061185b7f65d7a28e3265b37a6474929f336521b332c1681b933f6cb9f3376673440d862a87611caf565b50600180547fffffffffffffffffffffffff0000000000000000000000000000000000000000166001600160a01b038a161790556118b97f0da06bffcb63442de88b7f8385468eaf51e47079d4fa96875938e2c27c451deb89611caf565b50600380547fffffffffffffffffffffffff0000000000000000000000000000000000000000166001600160a01b038916179055831561194e5784547fffffffffffffffffffffffffffffffffffffffffffffff00ffffffffffffffff168555604051600181527fc7f505b2f371ae2175ee4913f4499e1f2633a7b5936321eed1cdaeb6115181d29060200160405180910390a15b5050505050505050565b7f0da06bffcb63442de88b7f8385468eaf51e47079d4fa96875938e2c27c451deb61198281611ca5565b61198a611d9c565b6119926121ae565b6001600160a01b0385166119b95760405163d92e233d60e01b815260040160405180910390fd5b6000856001600160a01b03163460405160006040518083038185875af1925050503d8060008114611a06576040519150601f19603f3d011682016040523d82523d6000602084013e611a0b565b606091505b5050905080611a46576040517facfdb44400000000000000000000000000000000000000000000000000000000815260040160405180910390fd5b6040517fc9028a360000000000000000000000000000000000000000000000000000000081526001600160a01b0387169063c9028a3690611a8b9086906004016139c7565b600060405180830381600087803b158015611aa557600080fd5b505af1158015611ab9573d6000803e3d6000fd5b5050505060006001600160a01b0316866001600160a01b03167fde7603a6ed5d07c9f43597ccfe9043d15b66d3284f0de321f5cdf56329e6e03534888888604051611b0794939291906139da565b60405180910390a350611b3960017f9b779b17422d0df92223018b32b4d1fa46e071723d6817e2486d003becc55f0055565b5050505050565b611b48611d9c565b84600003611b82576040517f951e19ed00000000000000000000000000000000000000000000000000000000815260040160405180910390fd5b6001600160a01b038616611ba95760405163d92e233d60e01b815260040160405180910390fd5b610400611bb9606083018361380f565b611bc4915084613874565b10611bfb576040517f386691aa00000000000000000000000000000000000000000000000000000000815260040160405180910390fd5b611c06338587611dfa565b856001600160a01b0316336001600160a01b03167fc6f891b65320c682b217616a62b51f218fee95d5f0ba83e758ef9ab4ee8e975c8787878787604051611c51959493929190613924565b60405180910390a3505050505050565b60008281527f02dd7bc7dec4dceedda775e58dd541e08a116c6c53815c0bd028192f7b6268006020526040902060010154611c9b81611ca5565b610b5083836120ea565b610cc58133612976565b60008281527f02dd7bc7dec4dceedda775e58dd541e08a116c6c53815c0bd028192f7b626800602081815260408084206001600160a01b038616855290915282205460ff16611d92576000848152602082815260408083206001600160a01b0387168452909152902080547fffffffffffffffffffffffffffffffffffffffffffffffffffffffffffffff00166001179055611d483390565b6001600160a01b0316836001600160a01b0316857f2f8788117e7eff1d82e926ec794901d17c78024a50270940304540a733656f0d60405160405180910390a460019150506107e2565b60009150506107e2565b7fcd5ed15c6e187e77e9aee88184c21f4f2182ab5827cb3b7e07fbedcd63f033005460ff1615611df8576040517fd93c066500000000000000000000000000000000000000000000000000000000815260040160405180910390fd5b565b6003546001600160a01b0390811690831603611f5e57611e256001600160a01b038316843084612a03565b6002546040517f095ea7b30000000000000000000000000000000000000000000000000000000081526001600160a01b039182166004820152602481018390529083169063095ea7b3906044016020604051808303816000875af1158015611e91573d6000803e3d6000fd5b505050506040513d601f19601f82011682018060405250810190611eb591906138ee565b611eeb576040517f8164f84200000000000000000000000000000000000000000000000000000000815260040160405180910390fd5b6002546040517f743e0c9b000000000000000000000000000000000000000000000000000000008152600481018390526001600160a01b039091169063743e0c9b90602401600060405180830381600087803b158015611f4a57600080fd5b505af11580156115d8573d6000803e3d6000fd5b6000546040517fd936547e0000000000000000000000000000000000000000000000000000000081526001600160a01b0384811660048301529091169063d936547e90602401602060405180830381865afa158015611fc1573d6000803e3d6000fd5b505050506040513d601f19601f82011682018060405250810190611fe591906138ee565b61201b576040517fac2175f100000000000000000000000000000000000000000000000000000000815260040160405180910390fd5b600054610ba2906001600160a01b038481169186911684612a03565b60606120438383612a3c565b600080856001600160a01b0316348686604051612061929190613a11565b60006040518083038185875af1925050503d806000811461209e576040519150601f19603f3d011682016040523d82523d6000602084013e6120a3565b606091505b5091509150816120df576040517facfdb44400000000000000000000000000000000000000000000000000000000815260040160405180910390fd5b9150505b9392505050565b60008281527f02dd7bc7dec4dceedda775e58dd541e08a116c6c53815c0bd028192f7b626800602081815260408084206001600160a01b038616855290915282205460ff1615611d92576000848152602082815260408083206001600160a01b038716808552925280832080547fffffffffffffffffffffffffffffffffffffffffffffffffffffffffffffff0016905551339287917ff6391f5c32d9c69d2a47ea670b442974b53935d1edc7fd64eb21e047a839171b9190a460019150506107e2565b7f9b779b17422d0df92223018b32b4d1fa46e071723d6817e2486d003becc55f0080547ffffffffffffffffffffffffffffffffffffffffffffffffffffffffffffffffe01612229576040517f3ee5aeb500000000000000000000000000000000000000000000000000000000815260040160405180910390fd5b60029055565b6060836001600160a01b031663676cc054348786866040518563ffffffff1660e01b815260040161226293929190613a21565b60006040518083038185885af1158015612280573d6000803e3d6000fd5b50505050506040513d6000823e601f3d908101601f191682016040526122a99190810190613a4c565b95945050505050565b60017f9b779b17422d0df92223018b32b4d1fa46e071723d6817e2486d003becc55f0055565b6122e0612b3c565b7fcd5ed15c6e187e77e9aee88184c21f4f2182ab5827cb3b7e07fbedcd63f0330080547fffffffffffffffffffffffffffffffffffffffffffffffffffffffffffffff001681557f5db9ee0a495bf2e6ff9c91a7834c1ba4fdd244a5e8aa4e537bd38aeae4b073aa335b6040516001600160a01b03909116815260200160405180910390a150565b306001600160a01b037f000000000000000000000000000000000000000000000000000000000000000016148061240157507f00000000000000000000000000000000000000000000000000000000000000006001600160a01b03166123f57f360894a13ba1a3210667c828492db98dca3e2076cc3735a920a3ca505d382bbc546001600160a01b031690565b6001600160a01b031614155b15611df8576040517fe07c8dba00000000000000000000000000000000000000000000000000000000815260040160405180910390fd5b6000610ce381611ca5565b816001600160a01b03166352d1902d6040518163ffffffff1660e01b8152600401602060405180830381865afa92505050801561249d575060408051601f3d908101601f1916820190925261249a9181019061390b565b60015b6124e3576040517f4c9c8ce30000000000000000000000000000000000000000000000000000000081526001600160a01b03831660048201526024015b60405180910390fd5b7f360894a13ba1a3210667c828492db98dca3e2076cc3735a920a3ca505d382bbc811461253f576040517faa1d49a4000000000000000000000000000000000000000000000000000000008152600481018290526024016124da565b610ba28383612b97565b6040517f095ea7b30000000000000000000000000000000000000000000000000000000081526001600160a01b038281166004830152600060248301819052919084169063095ea7b3906044016020604051808303816000875af11580156125b5573d6000803e3d6000fd5b505050506040513d601f19601f820116820180604052508101906120e391906138ee565b6003546001600160a01b0390811690831603612728576002546040517f095ea7b30000000000000000000000000000000000000000000000000000000081526001600160a01b039182166004820152602481018390529083169063095ea7b3906044016020604051808303816000875af115801561265b573d6000803e3d6000fd5b505050506040513d601f19601f8201168201806040525081019061267f91906138ee565b6126b5576040517f8164f84200000000000000000000000000000000000000000000000000000000815260040160405180910390fd5b6002546040517f743e0c9b000000000000000000000000000000000000000000000000000000008152600481018390526001600160a01b039091169063743e0c9b90602401600060405180830381600087803b15801561271457600080fd5b505af1158015610fdf573d6000803e3d6000fd5b6000546040517fd936547e0000000000000000000000000000000000000000000000000000000081526001600160a01b0384811660048301529091169063d936547e90602401602060405180830381865afa15801561278b573d6000803e3d6000fd5b505050506040513d601f19601f820116820180604052508101906127af91906138ee565b6127e5576040517fac2175f100000000000000000000000000000000000000000000000000000000815260040160405180910390fd5b600054610ce3906001600160a01b038481169116836128da565b306001600160a01b037f00000000000000000000000000000000000000000000000000000000000000001614611df8576040517fe07c8dba00000000000000000000000000000000000000000000000000000000815260040160405180910390fd5b612869611d9c565b7fcd5ed15c6e187e77e9aee88184c21f4f2182ab5827cb3b7e07fbedcd63f0330080547fffffffffffffffffffffffffffffffffffffffffffffffffffffffffffffff001660011781557f62e78cea01bee320cd4e420270b5ea74000d11b0c9f74754ebdbfc544b05a2583361234a565b6040516001600160a01b03838116602483015260448201839052610ba291859182169063a9059cbb906064015b604051602081830303815290604052915060e01b6020820180517bffffffffffffffffffffffffffffffffffffffffffffffffffffffff8381831617835250505050612bed565b611df8612c69565b61295e612c69565b611df8612cd0565b61296e612c69565b611df8612cd8565b60008281527f02dd7bc7dec4dceedda775e58dd541e08a116c6c53815c0bd028192f7b626800602090815260408083206001600160a01b038516845290915290205460ff16610ce3576040517fe2517d3f0000000000000000000000000000000000000000000000000000000081526001600160a01b0382166004820152602481018390526044016124da565b6040516001600160a01b038481166024830152838116604483015260648201839052610b509186918216906323b872dd90608401612907565b60048110610ce35781357f98933fac000000000000000000000000000000000000000000000000000000007fffffffff00000000000000000000000000000000000000000000000000000000821601612ac1576040517fed69977500000000000000000000000000000000000000000000000000000000815260040160405180910390fd5b7f36fd75ca000000000000000000000000000000000000000000000000000000007fffffffff00000000000000000000000000000000000000000000000000000000821601610ba2576040517ff3459a9600000000000000000000000000000000000000000000000000000000815260040160405180910390fd5b7fcd5ed15c6e187e77e9aee88184c21f4f2182ab5827cb3b7e07fbedcd63f033005460ff16611df8576040517f8dfc202b00000000000000000000000000000000000000000000000000000000815260040160405180910390fd5b612ba082612d29565b6040516001600160a01b038316907fbc7cd75a20ee27fd9adebab32041f755214dbc6bffa90cc0225b39da2e5c2d3b90600090a2805115612be557610ba28282612dd1565b610ce3612e3e565b6000612c026001600160a01b03841683612e76565b90508051600014158015612c27575080806020019051810190612c2591906138ee565b155b15610ba2576040517f5274afe70000000000000000000000000000000000000000000000000000000081526001600160a01b03841660048201526024016124da565b7ff0c57e16840df040f15088dc2f81fe391c3923bec73e23a9662efc9c229c6a005468010000000000000000900460ff16611df8576040517fd7e6bcf800000000000000000000000000000000000000000000000000000000815260040160405180910390fd5b6122b2612c69565b612ce0612c69565b7fcd5ed15c6e187e77e9aee88184c21f4f2182ab5827cb3b7e07fbedcd63f0330080547fffffffffffffffffffffffffffffffffffffffffffffffffffffffffffffff00169055565b806001600160a01b03163b600003612d78576040517f4c9c8ce30000000000000000000000000000000000000000000000000000000081526001600160a01b03821660048201526024016124da565b7f360894a13ba1a3210667c828492db98dca3e2076cc3735a920a3ca505d382bbc80547fffffffffffffffffffffffff0000000000000000000000000000000000000000166001600160a01b0392909216919091179055565b6060600080846001600160a01b031684604051612dee9190613aba565b600060405180830381855af49150503d8060008114612e29576040519150601f19603f3d011682016040523d82523d6000602084013e612e2e565b606091505b50915091506122a9858383612e84565b3415611df8576040517fb398979f00000000000000000000000000000000000000000000000000000000815260040160405180910390fd5b60606120e383836000612ef9565b606082612e9957612e9482612faf565b6120e3565b8151158015612eb057506001600160a01b0384163b155b15612ef2576040517f9996b3150000000000000000000000000000000000000000000000000000000081526001600160a01b03851660048201526024016124da565b50806120e3565b606081471015612f37576040517fcd7860590000000000000000000000000000000000000000000000000000000081523060048201526024016124da565b600080856001600160a01b03168486604051612f539190613aba565b60006040518083038185875af1925050503d8060008114612f90576040519150601f19603f3d011682016040523d82523d6000602084013e612f95565b606091505b5091509150612fa5868383612e84565b9695505050505050565b805115612fbf5780518082602001fd5b6040517f1425ea4200000000000000000000000000000000000000000000000000000000815260040160405180910390fd5b60006020828403121561300357600080fd5b81357fffffffff00000000000000000000000000000000000000000000000000000000811681146120e357600080fd5b80356001600160a01b038116811461304a57600080fd5b919050565b60006020828403121561306157600080fd5b6120e382613033565b600060a0828403121561307c57600080fd5b50919050565b6000806000806080858703121561309857600080fd5b6130a185613033565b9350602085013592506130b660408601613033565b9150606085013567ffffffffffffffff8111156130d257600080fd5b6130de8782880161306a565b91505092959194509250565b60008083601f8401126130fc57600080fd5b50813567ffffffffffffffff81111561311457600080fd5b60208301915083602082850101111561312c57600080fd5b9250929050565b6000806000806060858703121561314957600080fd5b61315285613033565b9350602085013567ffffffffffffffff81111561316e57600080fd5b61317a878288016130ea565b909450925050604085013567ffffffffffffffff8111156130d257600080fd5b6000806000604084860312156131af57600080fd5b6131b884613033565b9250602084013567ffffffffffffffff8111156131d457600080fd5b6131e0868287016130ea565b9497909650939450505050565b60005b838110156132085781810151838201526020016131f0565b50506000910152565b600081518084526132298160208601602086016131ed565b601f01601f19169290920160200192915050565b6020815260006120e36020830184613211565b60006020828403121561326257600080fd5b5035919050565b6000806040838503121561327c57600080fd5b8235915061328c60208401613033565b90509250929050565b60008060008084860360608112156132ac57600080fd5b60208112156132ba57600080fd5b508493506132ca60208601613033565b9250604085013567ffffffffffffffff8111156132e657600080fd5b6132f2878288016130ea565b95989497509550505050565b7f4e487b7100000000000000000000000000000000000000000000000000000000600052604160045260246000fd5b604051601f8201601f1916810167ffffffffffffffff81118282101715613356576133566132fe565b604052919050565b600067ffffffffffffffff821115613378576133786132fe565b50601f01601f191660200190565b6000806040838503121561339957600080fd5b6133a283613033565b9150602083013567ffffffffffffffff8111156133be57600080fd5b8301601f810185136133cf57600080fd5b80356133e26133dd8261335e565b61332d565b8181528660208385010111156133f757600080fd5b816020840160208301376000602083830101528093505050509250929050565b60008060008060006080868803121561342f57600080fd5b61343886613033565b945061344660208701613033565b935060408601359250606086013567ffffffffffffffff81111561346957600080fd5b613475888289016130ea565b969995985093965092949392505050565b6000806040838503121561349957600080fd5b6134a283613033565b9150602083013567ffffffffffffffff8111156134be57600080fd5b6134ca8582860161306a565b9150509250929050565b60006080828403121561307c57600080fd5b60008060008060008060a087890312156134ff57600080fd5b61350887613033565b955061351660208801613033565b945060408701359350606087013567ffffffffffffffff81111561353957600080fd5b61354589828a016130ea565b909450925050608087013567ffffffffffffffff81111561356557600080fd5b61357189828a016134d4565b9150509295509295509295565b60008060006060848603121561359357600080fd5b61359c84613033565b92506135aa60208501613033565b91506135b860408501613033565b90509250925092565b600080600080606085870312156135d757600080fd5b6135e085613033565b9350602085013567ffffffffffffffff8111156135fc57600080fd5b613608878288016130ea565b909450925050604085013567ffffffffffffffff81111561362857600080fd5b6130de878288016134d4565b60008060008060008060a0878903121561364d57600080fd5b61365687613033565b95506020870135945061366b60408801613033565b9350606087013567ffffffffffffffff81111561368757600080fd5b61369389828a016130ea565b909450925050608087013567ffffffffffffffff8111156136b357600080fd5b61357189828a0161306a565b8015158114610cc557600080fd5b60008083357fffffffffffffffffffffffffffffffffffffffffffffffffffffffffffffffe184360301811261370257600080fd5b830160208101925035905067ffffffffffffffff81111561372257600080fd5b80360382131561312c57600080fd5b818352818160208501375060006020828401015260006020601f19601f840116840101905092915050565b6001600160a01b0361376d82613033565b16825260006020820135613780816136bf565b151560208401526001600160a01b0361379b60408401613033565b1660408401526137ae60608301836136cd565b60a060608601526137c360a086018284613731565b6080948501359590940194909452509092915050565b8381526001600160a01b0383166020820152608060408201526000608082015260a0606082015260006122a960a083018461375c565b60008083357fffffffffffffffffffffffffffffffffffffffffffffffffffffffffffffffe184360301811261384457600080fd5b83018035915067ffffffffffffffff82111561385f57600080fd5b60200191503681900382131561312c57600080fd5b808201808211156107e2577f4e487b7100000000000000000000000000000000000000000000000000000000600052601160045260246000fd5b6040815260006138c2604083018587613731565b8281036020840152612fa5818561375c565b8381526040602082015260006122a9604083018486613731565b60006020828403121561390057600080fd5b81516120e3816136bf565b60006020828403121561391d57600080fd5b5051919050565b8581526001600160a01b038516602082015260806040820152600061394d608083018587613731565b828103606084015261395f818561375c565b98975050505050505050565b6001600160a01b0361397c82613033565b1682526001600160a01b0361399360208301613033565b1660208301526040818101359083015260006139b260608301836136cd565b608060608601526122a9608086018284613731565b6020815260006120e3602083018461396b565b8481526060602082015260006139f4606083018587613731565b8281036040840152613a06818561396b565b979650505050505050565b8183823760009101908152919050565b6001600160a01b03613a3285613033565b1681526040602082015260006122a9604083018486613731565b600060208284031215613a5e57600080fd5b815167ffffffffffffffff811115613a7557600080fd5b8201601f81018413613a8657600080fd5b8051613a946133dd8261335e565b818152856020838501011115613aa957600080fd5b6122a98260208301602086016131ed565b60008251613acc8184602087016131ed565b919091019291505056fea2646970667358221220c3e59bf31bb4cccf2cf9a29ff357df48b0507e2a911dec1f1b94cdeb212bd34a64736f6c634300081a0033","linkReferences":{}},"methodIdentifiers":{"ASSET_HANDLER_ROLE()":"5d62c860","DEFAULT_ADMIN_ROLE()":"a217fddf","MAX_PAYLOAD_SIZE()":"a2ba1934","PAUSER_ROLE()":"e63ab1e9","TSS_ROLE()":"a783c789","UPGRADE_INTERFACE_VERSION()":"ad3cb1cc","call(address,bytes,(address,bool,address,bytes,uint256))":"1becceb4","custody()":"dda79b75","deposit(address,(address,bool,address,bytes,uint256))":"726ac97c","deposit(address,uint256,address,(address,bool,address,bytes,uint256))":"102614b0","depositAndCall(address,bytes,(address,bool,address,bytes,uint256))":"744b9b8b","depositAndCall(address,uint256,address,bytes,(address,bool,address,bytes,uint256))":"d09e3b78","execute((address),address,bytes)":"38e22527","execute(address,bytes)":"1cff79cd","executeRevert(address,bytes,(address,address,uint256,bytes))":"cb7ba8e5","executeWithERC20(address,address,uint256,bytes)":"5131ab59","getRoleAdmin(bytes32)":"248a9ca3","grantRole(bytes32,address)":"2f2ff15d","hasRole(bytes32,address)":"91d14854","initialize(address,address,address)":"c0c53b8b","pause()":"8456cb59","paused()":"5c975abb","proxiableUUID()":"52d1902d","renounceRole(bytes32,address)":"36568abe","revertWithERC20(address,address,uint256,bytes,(address,address,uint256,bytes))":"aa0c0fc1","revokeRole(bytes32,address)":"d547741f","setConnector(address)":"10188aef","setCustody(address)":"ae7a3a6f","supportsInterface(bytes4)":"01ffc9a7","tssAddress()":"5b112591","unpause()":"3f4ba83a","updateTSSAddress(address)":"950837aa","upgradeToAndCall(address,bytes)":"4f1ef286","zetaConnector()":"57bec62f","zetaToken()":"21e093b1"},"storageLayout":{"storage":[{"astId":575,"contract":"contracts/evm/GatewayEVM.sol:GatewayEVM","label":"custody","offset":0,"slot":"0","type":"t_address"},{"astId":578,"contract":"contracts/evm/GatewayEVM.sol:GatewayEVM","label":"tssAddress","offset":0,"slot":"1","type":"t_address"},{"astId":581,"contract":"contracts/evm/GatewayEVM.sol:GatewayEVM","label":"zetaConnector","offset":0,"slot":"2","type":"t_address"},{"astId":584,"contract":"contracts/evm/GatewayEVM.sol:GatewayEVM","label":"zetaToken","offset":0,"slot":"3","type":"t_address"}],"types":{"t_address":{"encoding":"inplace","label":"address","numberOfBytes":"20"}}},"id":2}